:0400000066EF00F0B7
:100008003082FACF01F0FBCF02F0E9CF03F0EACF5C
:1000180004F0E1CF05F0E2CF06F0D9CF07F0DACF50
:1000280008F0F3CF09F0F4CF0AF0F6CF0BF0F7CFD2
:100038000CF0F8CF0DF0F5CF0EF030C00FF031C056
:1000480010F032C011F033C012F00E01CAAB11D05B
:10005800CA9B2D502E10D8B408D0838E2D06D8A058
:100068002E062D502E10D8B4839E1B4A1C2A75ECE0
:1000780002F00E01CEB1CE9112C033F011C032F0B1
:1000880010C031F00FC030F00EC0F5FF0DC0F8FF02
:100098000CC0F7FF0BC0F6FF0AC0F4FF09C0F3FF5E
:1000A80008C0DAFF07C0D9FF06C0E2FF05C0E1FFBC
:1000B80004C0EAFF03C0E9FF02C0FBFF01C0FAFF6A
:1000C80030921100A1EF02F079EC01F0000E266EDB
:1000D800000E256EF28E000E2E6E190E2D6E000E7D
:1000E8002B6E000E2A6E5E90000E2C6E000E226E95
:1000F800000E216E000E166E000E176E000E146EA6
:10010800010E136E90EC02F004001B501C10D8B4C2
:1001180005D01B06D8A01C060FEC02F021502210B7
:10012800D8B452D061D0000E226E1E0E216E000E81
:100138000F010A6F010E3ED00F010A51D8B402D048
:10014800020E38D00A0E36D0010E166E010E176E4A
:10015800838E000E1A6E000E196E1ABE06D01A5043
:1001680017E1050E195CD8B013D0E3EC01F0186E56
:10017800839E8A0E1818D8B402D0000E166EDE0EB2
:100188001818D8B402D0000E176E194A1A2AE5D7E3
:100198001650D8B402D0000E04D01750D8B402D0EC
:1001A800010E2A6E030E2C6E07D05EB005D05AECF5
:1001B80002F0C6D72C6E18D0000E226E050E216EE6
:1001C80013D039EC02F0BCD72C50000AD8B4ABD706
:1001D800010AD8B4B1D7030AD8B4B6D7010AD8B43B
:1001E800E4D7090AD8B4EDD71F502010D8B461D08D
:1001F80076D02A04D8A473D0010E2ED05E802ED0DB
:10020800000E206E020E1F6E84928480020E33D080
:10021800000E206E020E1F6E1D06D8A01E06B0EC42
:1002280002F07C0E135C010E1458D8B007D08492EB
:1002380084908496030E38D05E9051D01D501E10C5
:10024800D8A44DD08492849084965E902B6847D031
:100258002A50D8A444D0040E2B6ED0D78486000E22
:10026800206E050E1F6E3BD0000E206E020E1F6E14
:1002780084828490050E2B6E000E1E6EC80E1D6EB5
:100288002ED0000E206E020E1F6E1D06D8A01E0670
:10029800B0EC02F0C30E135C010E1458D8A0CED7F0
:1002A800849284908496000E2B6EC6D7000E2B6E17
:1002B80016D02B50000AD8B49CD7010AD8B4A0D7BE
:1002C800030AD8B4A5D7010AD8B4C2D7070AD8B444
:1002D800CBD7010AD8B4D5D7FA0AD8B4E7D75EB2D3
:1002E8005E925EA411D75E940FD7800E816E150EB4
:1002F8000E01D26F600ED86F000EDA6F000EDC6F41
:10030800080EDE6F000EDD6F000ED56E560ED66E2F
:10031800D468000ED36ECA9BC28BD58ECA9BC28B83
:10032800D58E400EF26E200EC26F000EC36F000E07
:10033800C46F000EC56F000EC66F010ED26E030E9D
:10034800CF6E000E0F010B6F200E0C6F000E0A6FA0
:10035800000E136F000E146F000E1B6F000E1C6F43
:10036800000E836E000E846E000E856E6F0E886E12
:10037800000E116F4F0E106FF40E896E040E196F78
:10038800F00E186F8A68000E216F2069000E0F6F3B
:10039800000E176F000E1F6F000E1E6F000E1D6FF0
:1003A800840E606E000E596F000E5A6F000E5B6F60
:1003B8003F0E576F000E586F0A0E5F6F1200F29EC5
:1003C800140E156E780E146E12D08DAA02D0140E6B
:1003D800156E060E136E300EE82EFED7132EFCD7C0
:1003E80000D01506142E03D0F28E000E1200155000
:1003F800D8A4EBD7080E5C6E0F018DAA01EF02F0AE
:1004080000F05D465D908DBA5D805C2E01EF02F0D4
:10041800F28E5D501200274A282AF50E275C010E3D
:100428002858D8A005D05E82000E286E000E276ED0
:10043800234A242AE80E235C030E2458D8A006D0A9
:10044800000E246E000E236E254A262A2150221003
:10045800D8B403D02106D8A022061F502010D8B443
:1004680012001F06D8A020061200000E0E01D26F3F
:10047800F29E84928490839E8496000E606E000E95
:10048800C36F000EC46F100EC26F200E0F010C6FE9
:10049800200E0B6F000E0A6F8DCF13F0030000F0D3
:1004A80000F079EC01F00400F28E1200150E0E0136
:1004B800D26FF29E84928490839E8496000E606E22
:1004C800000EC36F000EC46F000EC26F000E0F0146
:1004D8000C6F030000F000F079EC01F00400F28EDC
:1004E80012008FCF2FF0800E2F165F502F18D8A430
:1004F8000ED00A0E296002D0292A12002F50D8B433
:1005080002D05E9612005EA65E845E8612002FC040
:100518005FF0000E296E12000BD0150E156EC60E78
:10052800E82EFED7152EFCD700D01306D8A0140647
:1005380013501410D8B41200F0D75E6A00EE1BF006
:10054800120EEE6AE806FDE15F6A30903092000E06
:10055800F86E000168EF00F0608060B0FED763CFEE
:0805680013F064CF14F012003F
:020000040020DA
:10000000FF0FFF0FFF0FFF0FFF0FFF0FFF0FFF0F80
:020000040030CA
:0C0000008CFFFDFFBFC7FFFFFFFFFFFFED
:020000040031C9
:1000000001020304000000000000000000000000E6
:080010000000000000000000E8
:00000001FF
